:020000040800F2
:1000000000040020CF010008A5020008A702000894
:10001000AB020008AF020008B302000800000000B5
:10002000000000000000000000000000B70200080F
:10003000B902000800000000BB020008BD02000871
:10004000EF010008EF010008EF010008EF010008D0
:10005000EF010008EF010008EF010008EF010008C0
:10006000EF010008EF010008EF010008EF010008B0
:10007000EF010008EF010008EF010008EF010008A0
:10008000EF010008EF010008EF010008EF01000890
:10009000EF010008EF010008EF010008691D0008EA
:1000A000EF010008EF010008EF010008EF01000870
:1000B000D9020008EF010008EF010008EF01000875
:1000C000EF010008EF010008EF010008EF01000850
:1000D000EF010008BF020008EF010008EF0100086F
:1000E000EF010008EF010008EF010008EF01000830
:1000F000EF010008EF010008EF010008EF01000820
:10010000EF010008EF010008EF010008EF0100080F
:10011000EF010008EF010008EF010008EF010008FF
:10012000EF010008EF010008EF010008EF010008EF
:1001300000F002F800F03AF80AA090E8000C8244BF
:100140008344AAF10107DA4501D100F02FF8AFF29C
:10015000090EBAE80F0013F0010F18BFFB1A43F0A5
:1001600001031847FC1E00001C1F0000103A24BFAA
:1001700078C878C1FAD8520724BF30C830C144BF0C
:1001800004680C607047000000230024002500264E
:10019000103A28BF78C1FBD8520728BF30C148BFEA
:1001A0000B6070471FB51FBD10B510BD01F01DFFDE
:1001B0001146FFF7F7FF00F033F801F03BFF03B4FF
:1001C000FFF7F2FF03BC01F043FF000070470B484C
:1001D00080470B4981F308880A480047FEE7FEE79D
:1001E000FEE7FEE7FEE7FEE7FEE7FEE7FEE7FEE7E7
:1001F00005480649044A064B70470000CD01000837
:1002000080020020310100088000002080020020D0
:100210008000002000BF011EA0F10100FBD170474B
:1002200001F050FD00F072F800F0AFF801F05AFE56
:1002300000BF0221194800F0D6F91948FFF7EAFF7C
:100240001748FFF7E7FF1648FFF7E4FF1448FFF7EA
:10025000E1FF1348FFF7DEFF1148FFF7DBFF10480F
:10026000FFF7D8FF0E48FFF7D5FF0D48FFF7D2FF85
:100270000B48FFF7CFFF0A48FFF7CCFF0848FFF70E
:10028000C9FF0748FFF7C6FF0221044800F0ADF997
:1002900001F08CFE0248FFF7BDFFCAE700080140ED
:1002A000400D0300704700BFFEE700BFFEE700BF40
:1002B000FEE700BFFEE7704770477047704710B514
:1002C00040F225510F4800F071FE20B10D4800F0BA
:1002D0000EFEC4B200BF10BD10B50121880701F0A9
:1002E0006AFC70B10121880701F076FC06480068BD
:1002F00040F6B831884204D203480068401C0249E5
:10030000086010BD003801400000002000B585B035
:10031000012144F2040000F055FB4FF40070ADF8E9
:10032000100018208DF8130003208DF8120004A986
:10033000204800F0ABF84FF48060ADF810000420C6
:100340008DF8130004A91B4800F0A0F84FF4E13029
:1003500000900020ADF80400ADF80600ADF80800EC
:10036000ADF80C000C20ADF80A006946124800F008
:10037000E4FC012240F225510F4800F058FD012114
:100380000D4800F048FD05B000BD08B54FF4E06031
:1003900000F01CFC25208DF8000001208DF80100E4
:1003A00000208DF8020001208DF80300684600F05F
:1003B00012FC08BD000801400038014010B5044699
:1003C000C649601A8C422FD009DCC548204480B150
:1003D000B0F5806F16D0B0F5006F4AD11BE0B0F5D4
:1003E000806F2AD0B0F5006F30D0B0F5406F40D1AB
:1003F00035E00121042000F0FFFA0021042000F084
:10040000FBFA37E00121082000F0F6FA002108206D
:1004100000F0F2FA2EE00121102000F0EDFA0021A8
:10042000102000F0E9FA25E00121202000F0E4FA94
:100430000021202000F0E0FA1CE00121402000F023
:10044000DBFA0021402000F0D7FA13E001218020E0
:1004500000F0D2FA0021802000F0CEFA0AE001215B
:10046000080200F0C9FA00214FF4807000F0C4FACD
:1004700000E000BF00BF10BD10B50121084600F02C
:10048000BBFA0021012000F0B7FA10BD2DE9F041C0
:10049000024600250026002000230024002791F8B2
:1004A00003C00CF00F0591F803C00CF0100CBCF168
:1004B000000F03D091F802C04CEA050591F800C086
:1004C000BCF1000F31D0146800202BE04FF0010C7C
:1004D0000CFA00F3B1F800C00CEA03069E4220D1EA
:1004E00083004FF00F0C0CFA03F7BC4305FA03FC32
:1004F0004CEA040491F803C0BCF1280F06D14FF078
:10050000010C0CFA00FCC2F814C00AE091F803C018
:10051000BCF1480F05D14FF0010C0CFA00FCC2F8F9
:1005200010C0401C0828D1D31460B1F800C0BCF141
:10053000FF0F34DD546800202EE000F1080C4FF06E
:10054000010808FA0CF3B1F800C00CEA03069E4259
:1005500021D183004FF00F0C0CFA03F7BC4305FACE
:1005600003FC4CEA040491F803C0BCF1280F05D148
:1005700000F1080C08FA0CF8C2F8148091F803C0D6
:10058000BCF1480F07D100F1080C4FF0010808FA40
:100590000CF8C2F81080401C0828CED35460BDE887
:1005A000F0814FF6FF710180022181700421C1703A
:1005B00070470246002093680B400BB1012000E019
:1005C000002070470146886880B2704702460020CC
:1005D000D3680B400BB1012000E0002070470146BA
:1005E000C86880B2704701617047416170470AB1C5
:1005F000016100E041617047C16070474FF4803293
:100600000A43826181618261826982697047024620
:100610000020344B18684FF68073184040EA0210EF
:100620000843304B186070472F49C8617047F0B5D8
:100630000A4600230024002100252A4E7168C0F3D9
:10064000034583B200F44016B6F5401F08D121F0EF
:100650007061244E766826F07066224F7E6012E04C
:1006600000F48016B6F5801F06D1032606FA05F4BD
:10067000A14341F0706106E0460D360103FA06F62B
:10068000B14341F0706122B1460D360103FA06F61E
:100690003143144E7160F0BD30B500228B071C0F42
:1006A0000F2303FA04F20F4B08338C1053F8243055
:1006B00093430C4C08348D1044F8253023468C109D
:1006C00053F824308C07240F00FA04F42343054C1C
:1006D00008348D1044F8253030BD0000001401406E
:1006E00000F8FEBF0000014000002042DE48006824
:1006F00040F00100DC49086008464068DB490840DA
:10070000D949486008460068D9490840D649086078
:100710000846006820F4802008600846406820F4FD
:10072000FE004860002088607047CF49096821F4C6
:100730008031CD4A11601146096821F48021116091
:10074000B0F5803F03D0B0F5802F0ED106E0C6494A
:10075000096841F48031C44A116007E0C249096860
:1007600041F4A021C04A116000E000BF00BF704703
:1007700010B501460022002300204A11012A02D1AF
:10078000B94C236806E0022A02D1B74C236A01E083
:10079000B54C636A01F01F02012494401C400CB167
:1007A000012000E0002010BD38B50020009000249A
:1007B000002500BF3120FFF7DBFF05460098401CF5
:1007C00000901DB90098B0F5A06FF3D13120FFF76C
:1007D000CFFF08B1012400E00024204638BD0146C7
:1007E0000020A14A106820F0F80040EAC100106023
:1007F0007047A04908607047024600209A4B58682D
:1008000020F47C1042EA01031843974B586070476C
:1008100098490866704701460020934A506820F0C6
:1008200003000843506070478F48406800F00C0098
:100830007047014600208C4A506820F0F0000843C1
:100840005060704701460020874A506820F4E060FD
:1008500008435060704701460020834A506820F4E6
:10086000605040EAC1005060704729B17E4A527A18
:1008700002437D4B5A7204E07B4A527A82437A4BA0
:100880005A7270477B49D831086070470146002092
:10089000754A506820F4404008435060704700217A
:1008A000714A20321170704A82F82010012802D05B
:1008B00004280AD104E001216B4A2032117005E0BE
:1008C0000521694A2032117000E000BF00BF704767
:1008D0006949086070476449096A0143624A1162C4
:1008E0007047654944390860704730B500210022DF
:1008F000002400235C4D6D6805F00C0121B1042932
:1009000005D0082923D105E05C4D056022E05B4D50
:1009100005601FE0544D6D6805F47012022505EB6B
:100920009242514D6D6805F480341CB9544D5543C5
:1009300005600BE04C4D6D6805F400351DB1504D60
:100940005543056002E04D4D5543056002E04B4DB7
:10095000056000BF00BF444D6D6805F0F001090956
:10096000484D6B5C0568DD4045603F4D6D6805F4A2
:10097000E061090A434D6B5C4568DD4085603A4D96
:100980006D6805F46051C90A3E4D6B5C4568DD40F9
:10099000C560354D6D6805F44041890B3A4D6B5C7F
:1009A000C568B5FBF3F5056130BD29B12E4A526922
:1009B00002432D4B5A6104E02B4A526982432A4B71
:1009C0005A61704729B1284A92690243264B9A61BD
:1009D00004E0254A92698243234B9A61704729B10A
:1009E000214AD2690243204BDA6104E01E4AD269EF
:1009F00082431D4BDA61704729B11B4AD26802431A
:100A0000194BDA6004E0184AD2688243164BDA6068
:100A1000704729B1144A12690243134B1A6104E06A
:100A2000114A12698243104B1A61704712494039CA
:100A3000086070470F49C86470470B49C871704718
:100A40000948406A40F08070074948627047014693
:100A50000020054A92680A400AB1012000E0002007
:100A60007047014988727047001002400000FFF88B
:100A7000FFFFF6FE000042428004424200127A006C
:100A800000093D00040000201400002000204C4913
:100A90000860091D0860091D0860091D08604948B3
:100AA00047491431086070478179002946D044498C
:100AB000096802689143424A1160111D0968026881
:100AC00091433F4A121D116001793F4A1144D1F808
:100AD00000140268114302793B4B1A44C2F8001417
:100AE00037490831096802689143354A0832116074
:100AF000111D096802689143314A0C321160417935
:100B000010290ED1111F0968026811432C4A0832BE
:100B10001160111D096802681143294A0C321160E5
:100B200018E04179284A1144D1F8001402681143B1
:100B30004279254B1A44C2F800140BE00179224A8D
:100B40001144D1F800140268914302791E4B1A44F3
:100B5000C2F8001470470021016001710C2141713D
:100B60000021817170471649103109680143144A08
:100B700010321160704701460020114A1432126889
:100B80000A400AB1012000E0002070470C491431EE
:100B900008607047014600200022094B1B6803EAE9
:100BA0000102074B14331B680B4013B10AB101203B
:100BB00000E00020704702491431086070470000CF
:100BC00000040140FFFF07000000014031490143DC
:100BD000314A1160704770B5002100230F22C4789C
:100BE00004B32D4C246804F4E064C4F5E064210AE5
:100BF000C1F10403CA40447804FA03F18478144034
:100C000021430901254C0678A155047804F01F05FD
:100C10000124AC4005786D11AD0005F1E025C5F863
:100C2000004109E0047804F01F050124AC401C4D8C
:100C30000678761145F8264070BD1A4A0A400243EC
:100C4000154B1B1F1A60704739B1134A121D1268E9
:100C50000243114B1B1D1A6006E00F4A121D126859
:100C600082430D4B1B1D1A607047042808D14FF0BA
:100C7000E021096941F004014FF0E022116107E031
:100C80004FF0E021096921F004014FF0E0221161E9
:100C9000704700000000FA050CED00E000E400E001
:100CA00080E100E080FFFF1F10B50446D749601ABD
:100CB0008C422BD006DCD648204498B1B0F5806F2A
:100CC00038D119E0B0F5806F2AD0B0F56C4F31D132
:100CD00001218803FFF790FE00214FF48040FFF7C9
:100CE0008BFE28E001214804FFF793FE00214FF41A
:100CF0000030FFF78EFE1EE001218804FFF789FE19
:100D000000214FF48020FFF784FE14E00121C80485
:100D1000FFF77FFE00214FF40020FFF77AFE0AE084
:100D200001210805FFF775FE00214FF48010FFF741
:100D300070FE00E000BF00BF10BD2DE9F04786B097
:100D400005460E460024A24600BF00BF00272F46DE
:100D50002C8A4CF6FF700440F08804432C82AC8946
:100D60004EF6F3100440B088318908437189084376
:100D70000443AC81AC8A4FF6FF400440B089044381
:100D8000AC8201A8FFF7B1FDA248874202D1DDF88D
:100D900010A001E0DDF80CA00AEBCA0000EB0A107D
:100DA00031688900B0FBF1F86420B8FBF0F0040171
:100DB0002009642101FB1089322000EB0910B0FBEF
:100DC000F1F000F00F0004432C8106B0BDE8F0877D
:100DD0004FF41651016000218180C18001810C21F6
:100DE000418100218181704710B502460020108AA0
:100DF0004FF2FF0318400B884C8823438C88234311
:100E0000CC8823431843108210BD0021018041800B
:100E10008180C180704721B1828942F40052828171
:100E200004E082894DF6FF731A4082817047F0B565
:100E3000034600240026002500201846C1F3421472
:100E400001F01F06012707FA06F5012C01D10C302D
:100E500004E0022C01D1103000E014301AB1076810
:100E60002F43076002E00768AF430760F0BD1AB187
:100E7000838A0B43838202E0838A8B438382704799
:100E8000028A4FF6F0731A400282028A0A430282F3
:100E9000704782894FF2FF731A40828182890A4328
:100EA0008281704721B1828942F00202828104E08E
:100EB00082894FF6FD731A4082817047028A4FF68D
:100EC000DF731A400282028A0A430282704721B10C
:100ED000028A42F48042028204E0028A4BF6FF73E7
:100EE0001A4002827047C1F30802828070470146AF
:100EF0008888C0F308007047818941F00101818131
:100F00007047028BD2B20283028B42EA0122028333
:100F10007047028B02F47F420283028B0A430283F2
:100F2000704721B1828A42F02002828204E0828AE4
:100F30004FF6DF731A408282704721B1828A42F0F5
:100F40001002828204E0828A4FF6EF731A40828296
:100F5000704721B1828A42F00802828204E0828ACC
:100F60004FF6F7731A4082827047828A4FF6FB73FE
:100F70001A408282828A0A438282704721B1828A21
:100F800042F00202828204E0828A4FF6FD731A4028
:100F9000828270470246002013880B400BB101206B
:100FA00000E000207047CA430280704770B50246D7
:100FB0000B460024002100250020C3F3421503F056
:100FC0001F01012606FA01F1012D02D19689314057
:100FD00006E0022D02D1168A314001E0968A3140A6
:100FE0001C12012606FA04F41688344011B10CB123
:100FF000012000E0002070BD10B5002200230A127D
:1010000001249440A3B2DC43048010BD004C004096
:1010100000BCFFBF0038014010B50446F749601A14
:101020008C4245D00CDCB4F1804F1DD0F4482044F4
:1010300018B3B0F5806F29D0B0F5006F54D12EE011
:10104000B0F5806F3DD0B0F58E3F03D0B0F5923F44
:101050004AD13FE00121C802FFF7CEFC00214FF446
:101060000060FFF7C9FC40E001210846FFF7D1FC12
:1010700000210120FFF7CDFC37E001210220FFF71E
:10108000C8FC00210220FFF7C4FC2EE0012104204F
:10109000FFF7BFFC00210420FFF7BBFC25E0012186
:1010A0000820FFF7B6FC00210820FFF7B2FC1CE087
:1010B00001211020FFF7ADFC00211020FFF7A9FC53
:1010C00013E001212020FFF7A4FC00212020FFF7DE
:1010D000A0FC0AE001214803FFF78EFC00214FF439
:1010E0000050FFF789FC00E000BF00BF10BD028880
:1010F00002F08F020280CA884B881A4303881A4381
:1011000002808A8882850A880285BE4A904202D07F
:10111000BD4A904201D10A7A02860122828270473A
:1011200070B5002400220023058C4FF6FE76354072
:101130000584028C8388048B4FF68F752C400D88B4
:101140002C43751E2A400D892A434D882A43CD8899
:101150008586AC4DA84202D0AB4DA84213D14FF6C4
:10116000F7752A404D892A434FF6FB752A408D8832
:101170002A4347F6FF652B4047F6FF552B408D89E4
:101180002B43CD892B4383800483028470BD70B5CB
:10119000002400220023058C4FF6EF7635400584AD
:1011A000028C8388048B48F6FF752C400D884FF61F
:1011B000FF7606EA05252C434FF6DF752A400D8998
:1011C00006EA05152A434D8806EA05152A43CD8807
:1011D00005878C4DA84202D08B4DA8421DD14FF6F9
:1011E0007F752A404D894FF6FF7606EA05152A439A
:1011F0004FF6BF752A408D8806EA05152A4347F643
:10120000FF352B4047F2FF752B408D8906EA850597
:101210002B43CD8906EA85052B4383800483028412
:1012200070BD70B5002400220023058C4FF6FF66C8
:1012300035400584028C8388848B4FF68F752C4053
:101240000D882C434FF6FF552A400D894FF6FF7647
:1012500006EA05252A434D8806EA05252A43CD8856
:101260008587684DA84202D0674DA8421DD14FF234
:10127000FF752A404D894FF6FF7606EA05252A4379
:101280004FF6FF352A408D8806EA05252A4346F6A3
:10129000FF752B4045F6FF752B408D8906EA051535
:1012A0002B43CD8906EA05152B4383808483028472
:1012B00070BD70B5002400220023058C4EF6FF7629
:1012C00035400584028C8388848B48F6FF752C405A
:1012D0000D884FF6FF7606EA05252C434DF6FF757F
:1012E0002A400D8906EA05352A434D8806EA053568
:1012F0002A43CD88A0F84050424DA84202D0424D2A
:10130000A84207D1C3F30D038D894FF6FF7606EA95
:1013100085152B4383808483028470BD828B4FF2BA
:10132000FF331A408283828B4FF6FF7303EA012357
:101330001A4382837047F0B50C46154600210022FF
:101340000026078C4EF6FF7C07EA0C070784818B8A
:10135000028C4FF6FF7707EA043640F6FF47394024
:101360004FF6FF7707EA05274FF6FF7C0CEA033CB0
:1013700047EA0C0739434DF6FF773A4046F4805769
:101380003A4381830284F0BD828B4FF6F3731A4097
:101390008283828B0A4382837047F0B50C461546E0
:1013A000002100220026078C4FF6FF6C07EA0C078D
:1013B0000784818B028C4FF6FF7707EA04264FF6ED
:1013C0000C7739404FF6FF7707EA03172F4339436D
:1013D0004FF6FF573A4046F480773A4381830284C0
:1013E000F0BD028B4FF2FF331A400283028B4FF69F
:1013F000FF7303EA01231A43028370470010004081
:1014000000FCFFBF002C014000340140F0B50C4649
:101410001546002100220026078C4FF6EF7C07EAD4
:101420000C070784018B028C4FF6FF7707EA04163E
:1014300040F6FF4739404FF6FF7707EA0337394355
:101440004FF6FF7707EA052739434FF6DF773A4033
:1014500046F010073A4301830284F0BD028B4FF639
:10146000F3731A400283028B0A4302837047F0B57C
:101470000C46154600210022068C4FF6FE773E40B2
:101480000684018B028C4FF60C7631407E1C06EAF6
:1014900003162E4331437E1E324044F00106324390
:1014A00001830284F0BD70B505460C46208850B912
:1014B0002389A28861882846FFF7D9FFE18828465A
:1014C000FFF7CCFF25E0208804280AD12389A288D1
:1014D00061882846FFF79AFFE1882846FFF781FFD9
:1014E00017E0208808280AD12389A2886188284625
:1014F000FFF753FFE1882846FFF746FF09E02389FD
:10150000A28861882846FFF716FFE1882846FFF782
:1015100005FF70BD2DE9F04105460C460026012768
:10152000608808B9022600E00026A088012801D1C1
:10153000022700E001272088A0B92389A2886188BA
:101540002846FFF794FFE1882846FFF787FF2389A5
:101550003A4631462846FFF759FFE1882846FFF70B
:1015600040FF13E02389A28861882846FFF74EFFD9
:10157000E1882846FFF735FF23893A463146284659
:10158000FFF775FFE1882846FFF768FFBDE8F081A7
:101590000A884B881A438B881A43CB881A430B89D5
:1015A0001A434B891A438B891A43A0F84420704789
:1015B0004FF6FF71818000210180C180418001725E
:1015C00070470021018041808180C180018141817B
:1015D0008181C1817047002101804180012181808A
:1015E0000021C180018170470021018041808180FC
:1015F000C180018141818181704721B1028842F01F
:101600000102028004E0028840F2FE331A400280A8
:10161000704731B1B0F8442042F40042A0F84420B1
:1016200005E0B0F84420C2F30E02A0F84420704751
:101630001AB183890B43838102E083898B438381C1
:1016400070478182704741EA0203A0F84830704732
:101650001AB183890B43838102E083898B438381A1
:10166000704701894FF6F8721140018170470A46B0
:10167000002101894FF68F73194011430181704792
:1016800030B504460D4629462046FFF7F0FF208975
:1016900040F00700208130BD2DE9F04104460D46A1
:1016A00016461F46602D06D13B4601223146204694
:1016B000FFF7ACFE05E03B46012231462046FFF72E
:1016C000D6FE29462046FFF7D2FF208940F00700CA
:1016D0002081BDE8F08170B50C4600210189C9B2B6
:1016E00044EA02054FF6FF7606EA0326354329430E
:1016F000018170BD2DE9F04105460E46174698461A
:10170000002443463A4631462846FFF7E4FF2C8939
:101710004FF6F870044044F007044FF68F70044011
:1017200044F070042C81BDE8F081F0B504460D460C
:1017300016461F463B46324629462046FFF7CBFF5A
:10174000208940F480402081F0BD0185828270476D
:101750000A460021018840F28F331940114301806D
:101760007047F0B50C4615461E46002100220023A6
:101770000189028B038C4FF6F877394021434FF6ED
:10178000FC473A4040F201173A434FF6DD773B40C1
:101790004FF6FF7707EA06172F433B430181028389
:1017A0000384F0BD0A460021018B4FF68F73194068
:1017B0001143018370470A460021018B48F6FF73ED
:1017C00019404FF6FF7303EA022319430183704760
:1017D0000A460021818B4FF68F7319401143818394
:1017E00070470A460021818B48F6FF7319404FF677
:1017F000FF7303EA022319438183704721B10288F2
:1018000042F08002028004E0028840F27F331A40F6
:101810000280704721B1828842F00402828004E095
:1018200082884FF6FB731A408280704721B182880C
:1018300042F00802828004E082884FF6F7731A4073
:101840008280704721B1828842F00102828004E0E8
:1018500082884FF6FE731A40828070470A46002144
:10186000018B4FF6F77319401143018370470A4605
:101870000021018B4FF2FF7319404FF6FF7303EA0B
:1018800002231943018370470A460021818B4FF6DA
:10189000F77319401143818370470A460021818BF9
:1018A0004FF2FF7319404FF6FF7303EA0223194307
:1018B000818370470A460021018B4FF6FB73194064
:1018C0001143018370470A460021018B4FF6FF3315
:1018D00019404FF6FF7303EA02231943018370474F
:1018E0000A460021818B4FF6FB7319401143818317
:1018F00070470A460021818B4FF6FF3319404FF69F
:10190000FF7303EA02231943818370470A460021CB
:10191000018B4FF67F7319401143018370470A46CC
:101920000021018BC1F30E014FF6FF7303EA02237E
:101930001943018370470A460021818B4FF67F735C
:1019400019401143818370470A460021818BC1F3FE
:101950000E014FF6FF7303EA022319438183704798
:101960000A460021018C4FF6FD7319401143018492
:1019700070470A460021018C4FF6F7731940114356
:10198000018470470A460021018C4FF6DF7319402D
:101990004FF6FF7303EA02131943018470470A46A6
:1019A0000021018C4FF67F7319404FF6FF7303EA55
:1019B00002131943018470470A460021018C4FF637
:1019C000FF5319404FF6FF7303EA022319430184C2
:1019D00070470A460021018C4FF2FF7319404FF601
:1019E000FF7303EA02231943018470470A4600216A
:1019F000018C4DF6FF7319404FF6FF7303EA023373
:101A000019430184704710B5038C01248C40A34313
:101A10000384038C02FA01F4A4B22343038410BDAF
:101A200010B5038C04248C40A3430384038C02FA76
:101A300001F4A4B22343038410BD30B5038C012408
:101A40008C40A343038409B1082918D100F118037D
:101A500003EB61031B684FF68F74234000F11804F9
:101A600004EB6104236000F1180303EB61031B68BE
:101A7000134300F1180404EB610423601FE00B1F03
:101A8000C3F34E0400F118031B5948F6FF742340BA
:101A90000C1FC4F34E0500F1180463510B1FC3F370
:101AA0004E0400F118031B594FF6FF7404EA022498
:101AB00023430C1FC4F34E0500F11804635130BDDD
:101AC00021B1028842F00202028004E0028840F262
:101AD000FD331A400280704721B1028842F00402AF
:101AE000028004E0028840F2FB331A400280704713
:101AF00021B1828842F08002828004E082884FF621
:101B00007F731A4082807047028840F2F7331A4090
:101B1000028002880A430280704782884FF68F73E2
:101B20001A40828082880A438280704702894FF679
:101B3000F8731A40028102890A43028170470289C0
:101B40004FF67F731A40028102890A43028170476F
:101B5000818470478185704781867047018770470F
:101B600081877047A0F8401070470288D2B2028087
:101B700002880A43028070470146888E70470146FA
:101B8000088F70470146888F70470146B1F84000C2
:101B900070470146888C70470146088D70470246A1
:101BA0000020138A0B400BB1012000E00020704799
:101BB000CA430282704730B5024600200023002449
:101BC000158A05EA0103958905EA010413B10CB1F0
:101BD000012000E0002030BDCA43028270470000AF
:101BE0000CB50020019000904748006840F4803018
:101BF0004549086000BF4448006800F40030009088
:101C00000198401C0190009818B90198B0F5A06F98
:101C1000F1D13D48006800F4003010B1012000907F
:101C200001E0002000900098012844D13748006866
:101C300040F01000354908600846006820F00300B5
:101C400008600846006840F0020008602E484068BE
:101C50002D4948600846406848600846406840F49E
:101C6000806048600846406820F47C104860084660
:101C7000406840F4E81048600846006840F0807012
:101C8000086000BF2048006800F000700028F9D00C
:101C90001D48406820F003001B4948600846406822
:101CA00040F00200486000BF1748406800F00C0098
:101CB0000828F9D101E000BFFEE70CBD10B5FFF721
:101CC0008FFF10BD10B51048006840F001000E49AC
:101CD0000860084640680E4908400B4948600846BD
:101CE00000680C490840084908600846006820F46C
:101CF000802008600846406820F4FE00486000200C
:101D00008860FFF7DBFF10BD00100240002002409A
:101D10000000FFF8FFFFF6FE00BF011EA0F101006A
:101D2000FBD1704770B50025002400BF18E00821E2
:101D3000A748FEF758FC0A20FFF7EEFF0821A44849
:101D4000FEF753FC1021A248FEF733FCC4F10F014B
:101D50008840284385B20A20FFF7DEFF601CC4B22A
:101D6000102CE4DB284670BD70B52020FEF712FF72
:101D700000287DD09748007801287AD100240220DD
:101D800094490870FFF7CEFF044620219248FFF7E0
:101D9000AAF800BF40219048FFF7FCF80128F9D1CC
:101DA00042F2107204FB02F1CA1701EB5262D01129
:101DB000C21700EB9262C2F38F1442F2107094FBD0
:101DC000F0F100FB11404FF47A7190FBF1F0C0B2DA
:101DD00000F1300529468048FFF785F800BF402113
:101DE0007D48FFF7D7F80128F9D14FF47A7094FBBA
:101DF000F0F100FB1140642190FBF1F0C0B200F162
:101E0000300529467448FFF76EF800BF402172483C
:101E1000FFF7C0F80128F9D1642094FBF0F100FB32
:101E200011400A2190FBF1F0C0B200F130052946C3
:101E30006948FFF758F800BF40216748FFF7AAF844
:101E40000128F9D10A2094FBF0F100FB1140C0B247
:101E500000F1300529466048FFF745F800BF4021F2
:101E60005D48FFF797F80128F9D16D215A4801E044
:101E700023E01FE0FFF737F800BF40215648FFF787
:101E800089F80128F9D156215348FFF72CF800BFF3
:101E900040215148FFF77EF80128F9D120214E4812
:101EA000FFF721F800BF40214B48FFF773F80128E6
:101EB000F9D100BF2020FEF77EFE70BD08B54FF4BB
:101EC000C060FEF783FE17208DF8000000208DF81B
:101ED00001008DF8020001208DF803006846FEF72E
:101EE0007AFE08BD0EB501210D20FEF76BFD012124
:101EF000C803FEF774FD01213848FEF798FB022065
:101F0000ADF8080010208DF80B0003208DF80A00B2
:101F100002A93348FEF7BAFA02213148FEF765FB01
:101F20004FF40040ADF8080010208DF80B0003209E
:101F30008DF80A0002A92A48FEF7A8FA4FF40041DA
:101F40002748FEF750FB0820ADF8080010208DF858
:101F50000B0003208DF80A0002A91D48FEF796FA2F
:101F600008211B48FEF741FB3020ADF8080048204F
:101F70008DF80B0003208DF80A0002A91448FEF723
:101F800085FAFFF79BFF05210120FEF785FB202046
:101F9000009000208DF804000C208DF80500012031
:101FA0008DF806006846FEF77FFD0EBD10B54FF4B4
:101FB00000410B48FEF719FB0720FFF7ADFE4FF479
:101FC00000410748FEF70FFB01200249087010BDD1
:101FD000000C0140180000200038014000023000D1
:101FE00000080140704770477047754600F02CF8B4
:101FF000AE4605006946534620F00700854618B0F6
:1020000020B5FEF7F5F8BDE820404FF000064FF090
:1020100000074FF000084FF0000B21F00701AC461D
:10202000ACE8C009ACE8C009ACE8C009ACE8C0093C
:102030008D46704710B50446AFF300802046BDE8DA
:102040001040FEF7BCB80000004870471C0000209C
:1020500001491820ABBEFEE72600020070470000D1
:1020600080200008000000201C0000006C01000817
:102070009C2000081C000020640200008801000869
:10208000000000000000000001020304010203043C
:0C20900006070809020406080000000012
:04000005080001CF1F
:00000001FF
